{
  "_format": "hh-sol-artifact-1",
  "contractName": "RiskTagRegistry",
  "sourceName": "contracts/RiskTagRegistry.sol",
  "abi": [
    {
      "anonymous": false,
      "inputs": [
        {
          "indexed": true,
          "internalType": "address",
          "name": "previousOwner",
          "type": "address"
        },
        {
          "indexed": true,
          "internalType": "address",
          "name": "newOwner",
          "type": "address"
        }
      ],
      "name": "OwnershipTransferred",
      "type": "event"
    },
    {
      "anonymous": false,
      "inputs": [
        {
          "indexed": true,
          "internalType": "address",
          "name": "target",
          "type": "address"
        },
        {
          "indexed": false,
          "internalType": "enum RiskTagRegistry.RiskLevel",
          "name": "level",
          "type": "uint8"
        },
        {
          "indexed": false,
          "internalType": "string",
          "name": "label",
          "type": "string"
        },
        {
          "indexed": false,
          "internalType": "string",
          "name": "uri",
          "type": "string"
        }
      ],
      "name": "RiskUpdated",
      "type": "event"
    },
    {
      "inputs": [
        {
          "internalType": "address",
          "name": "target",
          "type": "address"
        }
      ],
      "name": "getRisk",
      "outputs": [
        {
          "components": [
            {
              "internalType": "enum RiskTagRegistry.RiskLevel",
              "name": "level",
              "type": "uint8"
            },
            {
              "internalType": "string",
              "name": "label",
              "type": "string"
            },
            {
              "internalType": "string",
              "name": "uri",
              "type": "string"
            }
          ],
          "internalType": "struct RiskTagRegistry.RiskInfo",
          "name": "",
          "type": "tuple"
        }
      ],
      "stateMutability": "view",
      "type": "function"
    },
    {
      "inputs": [
        {
          "internalType": "address",
          "name": "target",
          "type": "address"
        }
      ],
      "name": "getRiskLevel",
      "outputs": [
        {
          "internalType": "enum RiskTagRegistry.RiskLevel",
          "name": "",
          "type": "uint8"
        }
      ],
      "stateMutability": "view",
      "type": "function"
    },
    {
      "inputs": [],
      "name": "owner",
      "outputs": [
        {
          "internalType": "address",
          "name": "",
          "type": "address"
        }
      ],
      "stateMutability": "view",
      "type": "function"
    },
    {
      "inputs": [
        {
          "internalType": "address",
          "name": "target",
          "type": "address"
        },
        {
          "internalType": "enum RiskTagRegistry.RiskLevel",
          "name": "level",
          "type": "uint8"
        },
        {
          "internalType": "string",
          "name": "label",
          "type": "string"
        },
        {
          "internalType": "string",
          "name": "uri",
          "type": "string"
        }
      ],
      "name": "setRisk",
      "outputs": [],
      "stateMutability": "nonpayable",
      "type": "function"
    },
    {
      "inputs": [
        {
          "internalType": "address",
          "name": "newOwner",
          "type": "address"
        }
      ],
      "name": "transferOwnership",
      "outputs": [],
      "stateMutability": "nonpayable",
      "type": "function"
    }
  ],
  "bytecode": "0x608060405234801561001057600080fd5b50336000806101000a81548173ffffffffffffffffffffffffffffffffffffffff021916908373ffffffffffffffffffffffffffffffffffffffff1602179055503373ffffffffffffffffffffffffffffffffffffffff16600073ffffffffffffffffffffffffffffffffffffffff167f8be0079c531659141344cd1fd0a4f28419497f9722a3daafe3b4186f6b6457e060405160405180910390a36110ef806100bb6000396000f3fe608060405234801561001057600080fd5b50600436106100575760003560e01c80631615f2d41461005c578063717ba6c91461008c5780638da5cb5b146100a8578063cca7ee41146100c6578063f2fde38b146100f6575b600080fd5b6100766004803603810190610071919061084a565b610112565b60405161008391906108ee565b60405180910390f35b6100a660048036038101906100a19190610993565b61016b565b005b6100b0610419565b6040516100bd9190610a49565b60405180910390f35b6100e060048036038101906100db919061084a565b61043d565b6040516100ed9190610b5a565b60405180910390f35b610110600480360381019061010b919061084a565b6105f5565b005b6000600160008373ffffffffffffffffffffffffffffffffffffffff1673ffffffffffffffffffffffffffffffffffffffff16815260200190815260200160002060000160009054906101000a900460ff169050919050565b60008054906101000a900473ffffffffffffffffffffffffffffffffffffffff1673ffffffffffffffffffffffffffffffffffffffff163373ffffffffffffffffffffffffffffffffffffffff16146101f9576040517f08c379a00000000000000000000000000000000000000000000000000000000081526004016101f090610bd9565b60405180910390fd5b600073ffffffffffffffffffffffffffffffffffffffff168673ffffffffffffffffffffffffffffffffffffffff1603610268576040517f08c379a000000000000000000000000000000000000000000000000000000000815260040161025f90610c6b565b60405180910390fd5b604051806060016040528086600381111561028657610285610877565b5b815260200185858080601f016020809104026020016040519081016040528093929190818152602001838380828437600081840152601f19601f82011690508083019250505050505050815260200183838080601f016020809104026020016040519081016040528093929190818152602001838380828437600081840152601f19601f82011690508083019250505050505050815250600160008873ffffffffffffffffffffffffffffffffffffffff1673ffffffffffffffffffffffffffffffffffffffff16815260200190815260200160002060008201518160000160006101000a81548160ff0219169083600381111561038757610386610877565b5b021790555060208201518160010190816103a19190610ed0565b5060408201518160020190816103b79190610ed0565b509050508573ffffffffffffffffffffffffffffffffffffffff167f88c835fcb2034b02e66b81e1cf6bea2f50aedc50cd4192c96905b218f543c5a08686868686604051610409959493929190610fde565b60405180910390a2505050505050565b60008054906101000a900473ffffffffffffffffffffffffffffffffffffffff1681565b6104456107af565b600160008373ffffffffffffffffffffffffffffffffffffffff1673ffffffffffffffffffffffffffffffffffffffff1681526020019081526020016000206040518060600160405290816000820160009054906101000a900460ff1660038111156104b4576104b3610877565b5b60038111156104c6576104c5610877565b5b81526020016001820180546104da90610ce9565b80601f016020809104026020016040519081016040528092919081815260200182805461050690610ce9565b80156105535780601f1061052857610100808354040283529160200191610553565b820191906000526020600020905b81548152906001019060200180831161053657829003601f168201915b5050505050815260200160028201805461056c90610ce9565b80601f016020809104026020016040519081016040528092919081815260200182805461059890610ce9565b80156105e55780601f106105ba576101008083540402835291602001916105e5565b820191906000526020600020905b8154815290600101906020018083116105c857829003601f168201915b5050505050815250509050919050565b60008054906101000a900473ffffffffffffffffffffffffffffffffffffffff1673ffffffffffffffffffffffffffffffffffffffff163373ffffffffffffffffffffffffffffffffffffffff1614610683576040517f08c379a000000000000000000000000000000000000000000000000000000000815260040161067a90610bd9565b60405180910390fd5b600073ffffffffffffffffffffffffffffffffffffffff168173ffffffffffffffffffffffffffffffffffffffff16036106f2576040517f08c379a00000000000000000000000000000000000000000000000000000000081526004016106e990611099565b60405180910390fd5b8073ffffffffffffffffffffffffffffffffffffffff1660008054906101000a900473ffffffffffffffffffffffffffffffffffffffff1673ffffffffffffffffffffffffffffffffffffffff167f8be0079c531659141344cd1fd0a4f28419497f9722a3daafe3b4186f6b6457e060405160405180910390a3806000806101000a81548173ffffffffffffffffffffffffffffffffffffffff021916908373ffffffffffffffffffffffffffffffffffffffff16021790555050565b6040518060600160405280600060038111156107ce576107cd610877565b5b815260200160608152602001606081525090565b600080fd5b600080fd5b600073ffffffffffffffffffffffffffffffffffffffff82169050919050565b6000610817826107ec565b9050919050565b6108278161080c565b811461083257600080fd5b50565b6000813590506108448161081e565b92915050565b6000602082840312156108605761085f6107e2565b5b600061086e84828501610835565b91505092915050565b7f4e487b7100000000000000000000000000000000000000000000000000000000600052602160045260246000fd5b600481106108b7576108b6610877565b5b50565b60008190506108c8826108a6565b919050565b60006108d8826108ba565b9050919050565b6108e8816108cd565b82525050565b600060208201905061090360008301846108df565b92915050565b6004811061091657600080fd5b50565b60008135905061092881610909565b92915050565b600080fd5b600080fd5b600080fd5b60008083601f8401126109535761095261092e565b5b8235905067ffffffffffffffff8111156109705761096f610933565b5b60208301915083600182028301111561098c5761098b610938565b5b9250929050565b600080600080600080608087890312156109b0576109af6107e2565b5b60006109be89828a01610835565b96505060206109cf89828a01610919565b955050604087013567ffffffffffffffff8111156109f0576109ef6107e7565b5b6109fc89828a0161093d565b9450945050606087013567ffffffffffffffff811115610a1f57610a1e6107e7565b5b610a2b89828a0161093d565b92509250509295509295509295565b610a438161080c565b82525050565b6000602082019050610a5e6000830184610a3a565b92915050565b610a6d816108cd565b82525050565b600081519050919050565b600082825260208201905092915050565b60005b83811015610aad578082015181840152602081019050610a92565b60008484015250505050565b6000601f19601f8301169050919050565b6000610ad582610a73565b610adf8185610a7e565b9350610aef818560208601610a8f565b610af881610ab9565b840191505092915050565b6000606083016000830151610b1b6000860182610a64565b5060208301518482036020860152610b338282610aca565b91505060408301518482036040860152610b4d8282610aca565b9150508091505092915050565b60006020820190508181036000830152610b748184610b03565b905092915050565b600082825260208201905092915050565b7f4f776e61626c653a2063616c6c6572206973206e6f7420746865206f776e6572600082015250565b6000610bc3602083610b7c565b9150610bce82610b8d565b602082019050919050565b60006020820190508181036000830152610bf281610bb6565b9050919050565b7f5269736b54616752656769737472793a2074617267657420697320746865207a60008201527f65726f2061646472657373000000000000000000000000000000000000000000602082015250565b6000610c55602b83610b7c565b9150610c6082610bf9565b604082019050919050565b60006020820190508181036000830152610c8481610c48565b9050919050565b7f4e487b7100000000000000000000000000000000000000000000000000000000600052604160045260246000fd5b7f4e487b7100000000000000000000000000000000000000000000000000000000600052602260045260246000fd5b60006002820490506001821680610d0157607f821691505b602082108103610d1457610d13610cba565b5b50919050565b60008190508160005260206000209050919050565b60006020601f8301049050919050565b600082821b905092915050565b600060088302610d7c7fffffffffffffffffffffffffffffffffffffffffffffffffffffffffffffffff82610d3f565b610d868683610d3f565b95508019841693508086168417925050509392505050565b6000819050919050565b6000819050919050565b6000610dcd610dc8610dc384610d9e565b610da8565b610d9e565b9050919050565b6000819050919050565b610de783610db2565b610dfb610df382610dd4565b848454610d4c565b825550505050565b600090565b610e10610e03565b610e1b818484610dde565b505050565b5b81811015610e3f57610e34600082610e08565b600181019050610e21565b5050565b601f821115610e8457610e5581610d1a565b610e5e84610d2f565b81016020851015610e6d578190505b610e81610e7985610d2f565b830182610e20565b50505b505050565b600082821c905092915050565b6000610ea760001984600802610e89565b1980831691505092915050565b6000610ec08383610e96565b9150826002028217905092915050565b610ed982610a73565b67ffffffffffffffff811115610ef257610ef1610c8b565b5b610efc8254610ce9565b610f07828285610e43565b600060209050601f831160018114610f3a5760008415610f28578287015190505b610f328582610eb4565b865550610f9a565b601f198416610f4886610d1a565b60005b82811015610f7057848901518255600182019150602085019450602081019050610f4b565b86831015610f8d5784890151610f89601f891682610e96565b8355505b6001600288020188555050505b505050505050565b82818337600083830152505050565b6000610fbd8385610b7c565b9350610fca838584610fa2565b610fd383610ab9565b840190509392505050565b6000606082019050610ff360008301886108df565b8181036020830152611006818688610fb1565b9050818103604083015261101b818486610fb1565b90509695505050505050565b7f4f776e61626c653a206e6577206f776e657220697320746865207a65726f206160008201527f6464726573730000000000000000000000000000000000000000000000000000602082015250565b6000611083602683610b7c565b915061108e82611027565b604082019050919050565b600060208201905081810360008301526110b281611076565b905091905056fea264697066735822122098c665b9d03f9bb5ab37f07ece58aa16f3ffc5c3fd387ac51592e9d5c4be217c64736f6c63430008140033",
  "linkReferences": {},
  "deployedLinkReferences": {}
}